:02000000842B4F
:10000800FF00030E8301CC000A08CB008A017008A8
:10001800A5007108A4007208A3007308A200740860
:10002800A1008B1C2328081E1E280130B6000030B2
:10003800B7002028B601B701FD308B0528280B1D15
:100048002828F8308100CA0AFB308B050C1D5D2872
:1000580000303F06031D322801303E06031D5B2891
:100068004008031944284408F000F101700896007C
:1000780043089500C001093097008F018E01592867
:100088004308403CF3004408031C013E9C3CF40038
:100098007408F000F10170089600730895000830A4
:1000A80097000130C0008F018E01FB308C05FB30BA
:1000B8008C052508F0002408F1002308F200220826
:1000C800F3002108F4004B088A004C0E8300FF0E51
:0400D8007F0E09008E
:1000DC0083120313FB01FA01F901F801A001730D5E
:1000EC00F80D7408F8027508031C750FF9027608F0
:1000FC00031C760FFA027708031C770FFB02000132
:10010C00031C0130A002F30D0730FC00730DF80D39
:10011C00F90DFA0DFB0DA00D7408731CA728F8023D
:10012C007508031C750FF9027608031C760FFA028A
:10013C007708031C770FFB020001031C0130A0029F
:10014C00B828F80775080318750FF907760803180F
:10015C00760FFA0777080318770FFB0700010318CF
:10016C000130A007F30DFC0B8C28720DF80DF90D66
:10017C00FA0DFB0DA00D7408731CD628F802750837
:10018C00031C750FF9027608031C760FFA02770828
:10019C00031C770FFB020001031C0130A002E728AF
:1001AC00F80775080318750FF90776080318760F0A
:1001BC00FA0777080318770FFB07000103180130C3
:1001CC00A007F20D0730FC00720DF80DF90DFA0DB9
:1001DC00FB0DA00D7408721C0529F8027508031C90
:1001EC00750FF9027608031C760FFA027708031CC8
:1001FC00770FFB020001031C0130A0021629F8073F
:10020C0075080318750FF90776080318760FFA07A7
:10021C0077080318770FFB07000103180130A007BC
:10022C00F20DFC0BEA28710DF80DF90DFA0DFB0D12
:10023C00A00D7408721C3429F8027508031C750F84
:10024C00F9027608031C760FFA027708031C770F65
:10025C00FB020001031C0130A0024529F8077508B8
:10026C000318750FF90776080318760FFA07770845
:10027C000318770FFB07000103180130A007F10DDD
:10028C000730FC00710DF80DF90DFA0DFB0DA00DEA
:10029C007408711C6329F8027508031C750FF902A8
:1002AC007608031C760FFA027708031C770FFB0203
:1002BC000001031C0130A0027429F807750803180B
:1002CC00750FF90776080318760FFA0777080318E5
:1002DC00770FFB07000103180130A007F10DFC0B91
:1002EC004829700DF80DF90DFA0DFB0DA00D7408D1
:1002FC00711C9229F8027508031C750FF902760817
:10030C00031C760FFA027708031C770FFB0200011F
:10031C00031C0130A002A329F80775080318750FF8
:10032C00F90776080318760FFA0777080318770F82
:10033C00FB07000103180130A007F00D0730FC008B
:10034C00700DF80DF90DFA0DFB0DA00D7408701C55
:10035C00C129F8027508031C750FF9027608031CF5
:10036C00760FFA027708031C770FFB020001031CBF
:10037C000130A002D229F80775080318750FF90788
:10038C0076080318760FFA0777080318770FFB0720
:10039C00000103180130A007F00DFC0BA629701802
:1003AC00E5297408F80775080318750FF90776081E
:1003BC000318760FFA0777080318770FFB07080066
:1003CC0083160313981690308312980083168717A0
:1003DC00071383128C1EF5291A08F000EF29080068
:1003EC00831203132230FC00F801F901FA01FB011E
:1003FC00FC0303192C2A0310FB0CFA0CF90CF80C57
:10040C00F30CF20CF10CF00C031CFE29FC03031989
:10041C001E2A7408F80775080318750FF907760873
:10042C000318760FFA0777080318770FFB07022AD1
:10043C007408F80775080318750FF9077608031880
:0E044C00760FFA0777080318770FFB070800F2
:10045A00831203134F08F0005008F1000130CF0255
:10046A00031CD0037008710403193C2A2D2A0800C2
:10047A00A030831603138700831287013030831656
:10048A00880083128801033083168600831286014E
:10049A003330831699001815E6210230FB00043028
:1004AA00FC00BA30FD00FD0B582AFC0B582AFB0B46
:0604BA00582A00000800B2
:1004C000C730831203131F05F2004D08F000F00D32
:1004D0007010F00D7010F00D7010700872049F0015
:1004E0000630FD00FD0B722A00001F151F1D792A22
:1004F000762A1E08F100F00183161E08F004003071
:04050000F1040800FA
:1005040007308312031392000C309D00FA308316D7
:0A05140092007D3083129B00080066
:10051E008030831603139F00413083129F00FF30FB
:0A052E008316850083128501080082
:1005380083120313CA014E08003C031DA52A4D0867
:0A0548004A020318A82A9F2A08009F
:1005520083120313AE01AF01B001B101AA01AB01D5
:10056200AC01AD01B801B901BA01BB018F018E0125
:06057200103090000800AB
:1005780083120313FB01FA01F9018030F800F10C32
:10058800F00C031CD02A7408F90775080318750FB6
:10059800FA070318FB0A0310F01FD82A7408FA0791
:1005A80075080318750FFB07FB0CFA0CF90CF80C0F
:1005B800031CC32A7B08F3007A08F2007908F100CB
:0605C8007808F0000800B5
:0A05CE0006308312031388040800AE
:0A05D80009308312031388040800A1
:1005E200831203131A08F100981CF92A181218161C
:0605F2007108F000080092
:0A05F8000530831203138804080085
:0A0602000A30831203138804080075
:0A060C00831203134D089B00080041
:0A061600003083120313880508006A
:0E0620000030831203138C1A0130F000080022
:10062E001030831203139000AE01AF01B001B1017F
:10063E00AA01AB01AC01AD01B801B901BA01BB0110
:10064E008F018E0107160A30CF000030D0002D2208
:10065E0000308705871A342B312B19309000871EF6
:10066E00392B362B18309000B1011008B0000F084E
:10067E00AF00AE010E08AE040030AF040030B00083
:10068E00B1002E08AA002F08AB003008AC003108CC
:10069E00AD002E08F0002F08F1003008F2003108EE
:1006AE00F3002230F400F501F601F701F621D03007
:1006BE00F4000730F500F601F7016E207008B8005F
:1006CE007108B9007208BA007308BB007308003CC9
:1006DE00031D7B2B7208003C031D7B2B7108013C14
:1006EE00031D7B2B7008903C0318812BB801B901B8
:0A06FE00BA01BB01013090000800B2
:100708003D228F2282228730831681008312810145
:100718008F018E01A9220130C000083097000130F6
:100728009000E0308B0083160C150730831296007A
:10073800D0309500B201B301E830CD000330CE00CF
:100748009C22360837040319FB2CCD01602270085F
:100758008312A8007108A9000130CD00602270083A
:100768008312A6007108A70080302906F0008030A7
:10077800013A7002031DC22B313028020318D32B13
:100788002808313CC7002908031C013E013CC80069
:10079800C70DC80D47105A30C7070318C80A80305C
:1007A800013AF000803029067002031DDD2B28086D
:1007B8004F3C0318002C28084F3CF0002908031C64
:1007C800013E013CF1007008C5007108C600063002
:1007D800F4000030F500BC22FF30F400FF30F500D3
:1007E800BC227008C5007108C6005A307007C500E1
:1007F80071080318013EC60080302706F0008030DB
:10080800013A7002031D0A2C3130260203181B2CF2
:100818002608313CC1002708031C013E013CC200E8
:10082800C10DC20D41105A30C1070318C20A8030E9
:10083800013AF000803027067002031D252C260897
:100848004F3C0318482C26084F3CF0002708031C8F
:10085800013E013CF1007008BC007108BD00063083
:10086800F4000030F500BC22FF30F400FF30F50042
:10087800BC227008BC007108BD005A307007BC006B
:1008880071080318013EBD008030013AF000803045
:1008980029067002031D522C2808313C031C5C2CCD
:1008A8000B23E7224708CD004808CE0006239C2CDE
:1008B80080302906F0008030013A7002031D662C52
:1008C8004F302802031C702C0B23EC224508CD0066
:1008D8004608CE0006239C2C80302706F000803086
:1008E800013A7002031D7A2C4F302602031C842C17
:1008F8000B2301233C08CD003D08CE0006239C2C89
:100908008030013AF000803027067002031D8E2CDB
:100918002608313C031C982C0B23FC224108CD00EF
:100928004208CE0006239C2C0B23CD01CE010623C2
:10093800061CBA2C00303306031DA42C00303206E6
:10094800031DB92C0130BE000030BF00F030C300D9
:100958000A30C400C830CD00CE019C22BE01BF01C0
:100968000130B2000030B300B92CCF2C3208330468
:100978000319CF2C0130BE000030BF00E830C3009F
:100988000330C400C830CD00CE019C22BE01BF0197
:10099800B201B301CF2C17236430CD000030CE0054
:1009A8009C2200303B02031DE32C00303A02031D59
:1009B800E32C00303902031DE32C283038020318D9
:1009C800F82C061700303B02031DF42C00303A02C5
:1009D800031DF42C00303902031DF42C0A303802B0
:1009E8000318F72C8616FA2C9F308605A52B360897
:1009F8003704031D862DC830CD00CE0106230B23F6
:100A0800102370080319852DF1227008C900162DCE
:100A1800FC22272D0123272DE722272DEC22272D25
:100A28000B23272D4908463A03190C2D4908423A49
:100A380003190E2D4908523A0319102D49084C3A4A
:100A48000319122D142D061C452D00303306031DE5
:100A58002F2D00303206031D442D0130BE0000301A
:100A6800BF00F030C3000A30C400C830CD00CE014A
:100A78009C22BE01BF010130B2000030B300442DFA
:100A88005A2D3208330403195A2D0130BE000030A4
:100A9800BF00E830C3000330C400C830CD00CE0129
:100AA8009C22BE01BF01B201B3015A2D1723643045
:100AB800CD000030CE009C2200303B02031D6E2D7D
:100AC80000303A02031D6E2D00303902031D6E2DD1
:100AD800283038020318832D061700303B02031D07
:100AE8007F2D00303A02031D7F2D00303902031D8F
:100AF8007F2D0A3038020318822D8616852D9F30E7
:080B08008605FB2CA52B872DAF
:02400E004A2F37
:00000001FF
